{
  "_format": "hh-sol-artifact-1",
  "contractName": "CartesiCompute",
  "sourceName": "cache/solpp-generated-contracts/CartesiCompute.sol",
  "abi": [
    {
      "inputs": [
        {
          "internalType": "address",
          "name": "_liAddress",
          "type": "address"
        },
        {
          "internalType": "address",
          "name": "_vgAddress",
          "type": "address"
        },
        {
          "internalType": "address",
          "name": "_machineAddress",
          "type": "address"
        }
      ],
      "stateMutability": "nonpayable",
      "type": "constructor"
    },
    {
      "anonymous": false,
      "inputs": [
        {
          "indexed": false,
          "internalType": "uint256",
          "name": "_index",
          "type": "uint256"
        }
      ],
      "name": "CartesiComputeCreated",
      "type": "event"
    },
    {
      "anonymous": false,
      "inputs": [
        {
          "indexed": false,
          "internalType": "uint256",
          "name": "_index",
          "type": "uint256"
        },
        {
          "indexed": false,
          "internalType": "bytes32",
          "name": "_state",
          "type": "bytes32"
        }
      ],
      "name": "CartesiComputeFinished",
      "type": "event"
    },
    {
      "anonymous": false,
      "inputs": [
        {
          "indexed": false,
          "internalType": "uint256",
          "name": "_index",
          "type": "uint256"
        }
      ],
      "name": "ChallengeStarted",
      "type": "event"
    },
    {
      "anonymous": false,
      "inputs": [
        {
          "indexed": false,
          "internalType": "uint256",
          "name": "_index",
          "type": "uint256"
        },
        {
          "indexed": false,
          "internalType": "bytes32",
          "name": "_claimedFinalHash",
          "type": "bytes32"
        }
      ],
      "name": "ClaimSubmitted",
      "type": "event"
    },
    {
      "anonymous": false,
      "inputs": [
        {
          "indexed": false,
          "internalType": "uint256",
          "name": "_index",
          "type": "uint256"
        },
        {
          "indexed": false,
          "internalType": "address",
          "name": "_confirmParty",
          "type": "address"
        }
      ],
      "name": "Confirmed",
      "type": "event"
    },
    {
      "anonymous": false,
      "inputs": [
        {
          "indexed": false,
          "internalType": "uint256",
          "name": "_index",
          "type": "uint256"
        },
        {
          "components": [
            {
              "internalType": "uint64",
              "name": "position",
              "type": "uint64"
            },
            {
              "internalType": "uint8",
              "name": "driveLog2Size",
              "type": "uint8"
            },
            {
              "internalType": "bytes",
              "name": "directValue",
              "type": "bytes"
            },
            {
              "internalType": "bytes",
              "name": "loggerIpfsPath",
              "type": "bytes"
            },
            {
              "internalType": "bytes32",
              "name": "loggerRootHash",
              "type": "bytes32"
            },
            {
              "internalType": "address",
              "name": "provider",
              "type": "address"
            },
            {
              "internalType": "bool",
              "name": "waitsProvider",
              "type": "bool"
            },
            {
              "internalType": "bool",
              "name": "needsLogger",
              "type": "bool"
            },
            {
              "internalType": "bool",
              "name": "downloadAsCAR",
              "type": "bool"
            }
          ],
          "indexed": false,
          "internalType": "struct CartesiComputeInterface.Drive",
          "name": "_drive",
          "type": "tuple"
        }
      ],
      "name": "DriveInserted",
      "type": "event"
    },
    {
      "inputs": [
        {
          "internalType": "uint256",
          "name": "_index",
          "type": "uint256"
        }
      ],
      "name": "abortByDeadline",
      "outputs": [],
      "stateMutability": "nonpayable",
      "type": "function"
    },
    {
      "inputs": [
        {
          "internalType": "uint256",
          "name": "_index",
          "type": "uint256"
        }
      ],
      "name": "challenge",
      "outputs": [],
      "stateMutability": "nonpayable",
      "type": "function"
    },
    {
      "inputs": [
        {
          "internalType": "uint256",
          "name": "_index",
          "type": "uint256"
        }
      ],
      "name": "challengeDrives",
      "outputs": [],
      "stateMutability": "nonpayable",
      "type": "function"
    },
    {
      "inputs": [
        {
          "internalType": "uint256",
          "name": "_index",
          "type": "uint256"
        }
      ],
      "name": "confirm",
      "outputs": [],
      "stateMutability": "nonpayable",
      "type": "function"
    },
    {
      "inputs": [],
      "name": "currentIndex",
      "outputs": [
        {
          "internalType": "uint256",
          "name": "",
          "type": "uint256"
        }
      ],
      "stateMutability": "view",
      "type": "function"
    },
    {
      "inputs": [
        {
          "internalType": "uint256",
          "name": "_index",
          "type": "uint256"
        }
      ],
      "name": "destruct",
      "outputs": [],
      "stateMutability": "nonpayable",
      "type": "function"
    },
    {
      "inputs": [
        {
          "internalType": "uint256",
          "name": "_index",
          "type": "uint256"
        }
      ],
      "name": "getCurrentState",
      "outputs": [
        {
          "internalType": "bytes32",
          "name": "",
          "type": "bytes32"
        }
      ],
      "stateMutability": "view",
      "type": "function"
    },
    {
      "inputs": [
        {
          "internalType": "uint256",
          "name": "_index",
          "type": "uint256"
        }
      ],
      "name": "getNonce",
      "outputs": [
        {
          "internalType": "uint256",
          "name": "currentNonce",
          "type": "uint256"
        }
      ],
      "stateMutability": "view",
      "type": "function"
    },
    {
      "inputs": [
        {
          "internalType": "uint256",
          "name": "_index",
          "type": "uint256"
        },
        {
          "internalType": "address",
          "name": "_p",
          "type": "address"
        }
      ],
      "name": "getPartyState",
      "outputs": [
        {
          "internalType": "bool",
          "name": "isParty",
          "type": "bool"
        },
        {
          "internalType": "bool",
          "name": "hasVoted",
          "type": "bool"
        },
        {
          "internalType": "bool",
          "name": "hasCheated",
          "type": "bool"
        }
      ],
      "stateMutability": "view",
      "type": "function"
    },
    {
      "inputs": [
        {
          "internalType": "uint256",
          "name": "_index",
          "type": "uint256"
        }
      ],
      "name": "getResult",
      "outputs": [
        {
          "internalType": "bool",
          "name": "",
          "type": "bool"
        },
        {
          "internalType": "bool",
          "name": "",
          "type": "bool"
        },
        {
          "internalType": "address",
          "name": "",
          "type": "address"
        },
        {
          "internalType": "bytes",
          "name": "",
          "type": "bytes"
        }
      ],
      "stateMutability": "view",
      "type": "function"
    },
    {
      "inputs": [
        {
          "internalType": "uint256",
          "name": "_index",
          "type": "uint256"
        },
        {
          "internalType": "address",
          "name": "_user",
          "type": "address"
        }
      ],
      "name": "getState",
      "outputs": [
        {
          "internalType": "uint256[]",
          "name": "",
          "type": "uint256[]"
        },
        {
          "internalType": "address[]",
          "name": "",
          "type": "address[]"
        },
        {
          "internalType": "bytes32[]",
          "name": "",
          "type": "bytes32[]"
        },
        {
          "internalType": "bytes",
          "name": "",
          "type": "bytes"
        },
        {
          "components": [
            {
              "internalType": "uint64",
              "name": "position",
              "type": "uint64"
            },
            {
              "internalType": "uint8",
              "name": "driveLog2Size",
              "type": "uint8"
            },
            {
              "internalType": "bytes",
              "name": "directValue",
              "type": "bytes"
            },
            {
              "internalType": "bytes",
              "name": "loggerIpfsPath",
              "type": "bytes"
            },
            {
              "internalType": "bytes32",
              "name": "loggerRootHash",
              "type": "bytes32"
            },
            {
              "internalType": "address",
              "name": "provider",
              "type": "address"
            },
            {
              "internalType": "bool",
              "name": "waitsProvider",
              "type": "bool"
            },
            {
              "internalType": "bool",
              "name": "needsLogger",
              "type": "bool"
            },
            {
              "internalType": "bool",
              "name": "downloadAsCAR",
              "type": "bool"
            }
          ],
          "internalType": "struct CartesiComputeInterface.Drive[]",
          "name": "",
          "type": "tuple[]"
        },
        {
          "components": [
            {
              "internalType": "bool",
              "name": "isParty",
              "type": "bool"
            },
            {
              "internalType": "bool",
              "name": "hasVoted",
              "type": "bool"
            },
            {
              "internalType": "bool",
              "name": "hasCheated",
              "type": "bool"
            },
            {
              "internalType": "uint64",
              "name": "arrayIdx",
              "type": "uint64"
            }
          ],
          "internalType": "struct CartesiComputeInterface.Party",
          "name": "user",
          "type": "tuple"
        },
        {
          "internalType": "bool",
          "name": "noChallengeDrive",
          "type": "bool"
        }
      ],
      "stateMutability": "view",
      "type": "function"
    },
    {
      "inputs": [
        {
          "internalType": "uint256",
          "name": "_index",
          "type": "uint256"
        },
        {
          "internalType": "address",
          "name": "",
          "type": "address"
        }
      ],
      "name": "getSubInstances",
      "outputs": [
        {
          "internalType": "address[]",
          "name": "_addresses",
          "type": "address[]"
        },
        {
          "internalType": "uint256[]",
          "name": "_indices",
          "type": "uint256[]"
        }
      ],
      "stateMutability": "view",
      "type": "function"
    },
    {
      "inputs": [
        {
          "internalType": "uint256",
          "name": "_finalTime",
          "type": "uint256"
        },
        {
          "internalType": "bytes32",
          "name": "_templateHash",
          "type": "bytes32"
        },
        {
          "internalType": "uint64",
          "name": "_outputPosition",
          "type": "uint64"
        },
        {
          "internalType": "uint8",
          "name": "_outputLog2Size",
          "type": "uint8"
        },
        {
          "internalType": "uint256",
          "name": "_roundDuration",
          "type": "uint256"
        },
        {
          "internalType": "address[]",
          "name": "parties",
          "type": "address[]"
        },
        {
          "components": [
            {
              "internalType": "uint64",
              "name": "position",
              "type": "uint64"
            },
            {
              "internalType": "uint8",
              "name": "driveLog2Size",
              "type": "uint8"
            },
            {
              "internalType": "bytes",
              "name": "directValue",
              "type": "bytes"
            },
            {
              "internalType": "bytes",
              "name": "loggerIpfsPath",
              "type": "bytes"
            },
            {
              "internalType": "bytes32",
              "name": "loggerRootHash",
              "type": "bytes32"
            },
            {
              "internalType": "address",
              "name": "provider",
              "type": "address"
            },
            {
              "internalType": "bool",
              "name": "waitsProvider",
              "type": "bool"
            },
            {
              "internalType": "bool",
              "name": "needsLogger",
              "type": "bool"
            },
            {
              "internalType": "bool",
              "name": "downloadAsCAR",
              "type": "bool"
            }
          ],
          "internalType": "struct CartesiComputeInterface.Drive[]",
          "name": "_inputDrives",
          "type": "tuple[]"
        },
        {
          "internalType": "bool",
          "name": "_noChallengeDrive",
          "type": "bool"
        }
      ],
      "name": "instantiate",
      "outputs": [
        {
          "internalType": "uint256",
          "name": "",
          "type": "uint256"
        }
      ],
      "stateMutability": "nonpayable",
      "type": "function"
    },
    {
      "inputs": [
        {
          "internalType": "uint256",
          "name": "_index",
          "type": "uint256"
        }
      ],
      "name": "isActive",
      "outputs": [
        {
          "internalType": "bool",
          "name": "",
          "type": "bool"
        }
      ],
      "stateMutability": "view",
      "type": "function"
    },
    {
      "inputs": [
        {
          "internalType": "uint256",
          "name": "_index",
          "type": "uint256"
        },
        {
          "internalType": "address",
          "name": "_user",
          "type": "address"
        }
      ],
      "name": "isConcerned",
      "outputs": [
        {
          "internalType": "bool",
          "name": "",
          "type": "bool"
        }
      ],
      "stateMutability": "view",
      "type": "function"
    },
    {
      "inputs": [
        {
          "internalType": "uint256",
          "name": "_index",
          "type": "uint256"
        },
        {
          "internalType": "bytes",
          "name": "_value",
          "type": "bytes"
        }
      ],
      "name": "provideDirectDrive",
      "outputs": [],
      "stateMutability": "nonpayable",
      "type": "function"
    },
    {
      "inputs": [
        {
          "internalType": "uint256",
          "name": "_index",
          "type": "uint256"
        },
        {
          "internalType": "bytes32",
          "name": "_root",
          "type": "bytes32"
        }
      ],
      "name": "provideLoggerDrive",
      "outputs": [],
      "stateMutability": "nonpayable",
      "type": "function"
    },
    {
      "inputs": [
        {
          "internalType": "uint256",
          "name": "_index",
          "type": "uint256"
        }
      ],
      "name": "revealLoggerDrive",
      "outputs": [],
      "stateMutability": "nonpayable",
      "type": "function"
    },
    {
      "inputs": [
        {
          "internalType": "uint256",
          "name": "_index",
          "type": "uint256"
        },
        {
          "internalType": "bytes32",
          "name": "_claimedFinalHash",
          "type": "bytes32"
        },
        {
          "internalType": "bytes32[][]",
          "name": "_drivesSiblings",
          "type": "bytes32[][]"
        },
        {
          "internalType": "bytes",
          "name": "_output",
          "type": "bytes"
        },
        {
          "internalType": "bytes32[]",
          "name": "_outputSiblings",
          "type": "bytes32[]"
        }
      ],
      "name": "submitClaim",
      "outputs": [],
      "stateMutability": "nonpayable",
      "type": "function"
    },
    {
      "inputs": [
        {
          "internalType": "uint256",
          "name": "_index",
          "type": "uint256"
        }
      ],
      "name": "winByVG",
      "outputs": [],
      "stateMutability": "nonpayable",
      "type": "function"
    }
  ],
  "bytecode": "0x6080604052600080553480156200001557600080fd5b50604051620062c8380380620062c8833981016040819052620000389162000099565b600380546001600160a01b03199081166001600160a01b039384161790915560058054821693831693909317909255600480549092169216919091179055620000e3565b80516001600160a01b03811681146200009457600080fd5b919050565b600080600060608486031215620000af57600080fd5b620000ba846200007c565b9250620000ca602085016200007c565b9150620000da604085016200007c565b90509250925092565b6161d580620000f36000396000f3fe608060405234801561001057600080fd5b506004361061012c5760003560e01c8063ab82d9a0116100ad578063c70683ca11610071578063c70683ca146102c9578063c87e3ae9146102dc578063ded4df63146102ef578063f9bc3b2114610302578063fa0ecc5b1461031557600080fd5b8063ab82d9a01461025c578063b72971ee1461026f578063ba0179b514610282578063bfda2e7214610295578063c526656c146102a857600080fd5b80635748c130116100f45780635748c130146101ab57806373df1612146101be57806382afd23b146101e4578063995e433914610207578063ab5da1871461022a57600080fd5b806301ff62ab1461013157806326987b6014610159578063351e6657146101705780633d46b819146101855780634c6fe7bf14610198575b600080fd5b61014461013f3660046152b5565b610328565b60405190151581526020015b60405180910390f35b61016260005481565b604051908152602001610150565b61018361017e36600461544d565b610386565b005b61016261019336600461555a565b610c1a565b6101836101a636600461555a565b610c84565b6101626101b936600461555a565b610ea8565b6101d16101cc3660046152b5565b611178565b6040516101509796959493929190615729565b6101446101f236600461555a565b60009081526001602052604090205460ff1690565b61021a61021536600461555a565b611bc0565b60405161015094939291906157fd565b61023d6102383660046152b5565b611fe6565b6040805193151584529115156020840152151590820152606001610150565b61018361026a36600461555a565b612053565b61016261027d3660046159ca565b6123d7565b61018361029036600461555a565b612d2e565b6101836102a336600461555a565b613000565b6102bb6102b63660046152b5565b6131d9565b604051610150929190615ada565b6101836102d7366004615aff565b613302565b6101836102ea36600461555a565b61392b565b6101836102fd36600461555a565b613b56565b61018361031036600461555a565b614069565b610183610323366004615b21565b6144d0565b60008280600054116103555760405162461bcd60e51b815260040161034c90615b67565b60405180910390fd5b505060009182526006602090815260408084206001600160a01b03939093168452600f909201905290205460ff1690565b8480600054116103a85760405162461bcd60e51b815260040161034c90615b67565b60008181526001602052604090205460ff166103d65760405162461bcd60e51b815260040161034c90615b97565b6000868152600660205260409020600e810154600c820180548993923392916001600160401b0390911690811061040f5761040f615bbf565b6000918252602090912001546001600160a01b0316146104715760405162461bcd60e51b815260206004820152601860248201527f53656e646572206d757374206265206120636c61696d65720000000000000000604482015260640161034c565b600088815260026020526040812080548a9290919061048f83615beb565b90915550506000898152600660205260408120906104ac8b614c5d565b82600601546104bb9190615c04565b421190506004601083015460ff16600a8111156104da576104da615c1c565b148061050657506002601083015460ff16600a8111156104fc576104fc615c1c565b1480156105065750805b6105895760405162461bcd60e51b815260206004820152604860248201527f5374617465206d7573742062652057616974696e67436c61696d206f7220576160448201527f6974696e674368616c6c656e67654472697665732c20772f20646561646c696e60648201526719481c185cdcd95960c21b608482015260a40161034c565b88516014830154146106035760405162461bcd60e51b815260206004820152603960248201527f436c61696d6564206472697665206e756d6265722073686f756c64206d61746360448201527f6820636c61696d6564207369626c696e6773206e756d62657200000000000000606482015260840161034c565b600482015461061d90600160401b900460ff166002615d10565b8851146106815760405162461bcd60e51b815260206004820152602c60248201527f4f7574707574206c656e67746820646f65736e2774206d61746368206f75747060448201526b7574206c6f67322073697a6560a01b606482015260840161034c565b600061068c89614fd7565b6004848101546040516310561d5760e31b81529293508d9273__$ab849054669f1a61b5fb2a141c20da3cf4$__9263d7304dd9926001600160401b03811692600160401b90910460ff169185916382b0eab8916106eb918a9101615d26565b602060405180830381865af4158015610708573d6000803e3d6000fd5b505050506040513d601f19601f8201168201806040525081019061072c9190615d39565b8d6040518563ffffffff1660e01b815260040161074c9493929190615d52565b602060405180830381865af4158015610769573d6000803e3d6000fd5b505050506040513d601f19601f8201168201806040525081019061078d9190615d39565b146107da5760405162461bcd60e51b815260206004820152601860248201527f4f7574707574206e6f7420696e2066696e616c20686173680000000000000000604482015260640161034c565b601483015460005b81811015610b395760008c82815181106107fe576107fe615bbf565b60200260200101519050856009015473__$ab849054669f1a61b5fb2a141c20da3cf4$__63d7304dd988601401858154811061083c5761083c615bbf565b600091825260209091206005909102015460148a0180546001600160401b03909216918790811061086f5761086f615bbf565b906000526020600020906005020160000160089054906101000a900460ff1673__$ab849054669f1a61b5fb2a141c20da3cf4$__63a73426888c60140189815481106108bd576108bd615bbf565b600091825260209091206005909102015460405160e083901b6001600160e01b0319168152600160401b90910460ff166004820152602401602060405180830381865af4158015610912573d6000803e3d6000fd5b505050506040513d601f19601f820116820180604052508101906109369190615d39565b866040518563ffffffff1660e01b81526004016109569493929190615d52565b602060405180830381865af4158015610973573d6000803e3d6000fd5b505050506040513d601f19601f820116820180604052508101906109979190615d39565b14610a1f5760405162461bcd60e51b815260206004820152604c60248201527f4472697665207369626c696e6773206d75737420626520636f6d70617469626c60448201527f6520776974682070726576696f757320696e697469616c206861736820666f7260648201526b20656d70747920647269766560a01b608482015260a40161034c565b73__$ab849054669f1a61b5fb2a141c20da3cf4$__63d7304dd9876014018481548110610a4e57610a4e615bbf565b60009182526020909120600590910201546014890180546001600160401b039092169186908110610a8157610a81615bbf565b906000526020600020906005020160000160089054906101000a900460ff16896013018681548110610ab557610ab5615bbf565b9060005260206000200154856040518563ffffffff1660e01b8152600401610ae09493929190615d52565b602060405180830381865af4158015610afd573d6000803e3d6000fd5b505050506040513d601f19601f82011682018060405250810190610b219190615d39565b60098701555080610b3181615beb565b9150506107e2565b50600a84018c905560108401805460ff19166006179055600b8401610b5e8b82615e05565b50600e840154600c85018054600192600f88019260009290916001600160401b0316908110610b8f57610b8f615bbf565b6000918252602080832091909101546001600160a01b03168352828101939093526040918201902080549315156101000261ff00199094169390931790925542600687015581518f81529081018e90527f1e9358f673ff367487ce56f136412ae5b69bf2c06e223aad2756d748c2a9b52a91015b60405180910390a150505050505050505050505050565b6000818060005411610c3e5760405162461bcd60e51b815260040161034c90615b67565b60008181526001602052604090205460ff16610c6c5760405162461bcd60e51b815260040161034c90615b97565b60008381526002602052604090205491505b50919050565b808060005411610ca65760405162461bcd60e51b815260040161034c90615b67565b60008181526001602052604090205460ff16610cd45760405162461bcd60e51b815260040161034c90615b97565b600082815260066020526040812090610cec84614c5d565b8260060154610cfb9190615c04565b4211905080610d405760405162461bcd60e51b81526020600482015260116024820152702232b0b23634b732903737ba1037bb32b960791b604482015260640161034c565b6000601083015460ff16600a811115610d5b57610d5b615c1c565b03610dbf576010820180546001919060ff191682805b02179055507f395534a9488250c4ea32136ac7cd156150898b4530ec3a5985e3ce6a50d2b36f84610da186610ea8565b6040805192835260208301919091520160405180910390a150505050565b6003601083015460ff16600a811115610dda57610dda615c1c565b03610df4576010820180546001919060ff19168280610d71565b6004601083015460ff16600a811115610e0f57610e0f615c1c565b03610e2a576010820180546005919060ff1916600183610d71565b6006601083015460ff16600a811115610e4557610e45615c1c565b03610e6057601082018054600a919060ff1916600183610d71565b60405162461bcd60e51b815260206004820152601a60248201527f43616e6e6f742061626f72742063757272656e74207374617465000000000000604482015260640161034c565b6000818060005411610ecc5760405162461bcd60e51b815260040161034c90615b67565b60008381526006602052604081206010015460ff169081600a811115610ef457610ef4615c1c565b03610f15576f57616974696e6750726f76696465727360801b925050610c7e565b600381600a811115610f2957610f29615c1c565b03610f48576d57616974696e6752657665616c7360901b925050610c7e565b600281600a811115610f5c57610f5c615c1c565b03610f83577557616974696e674368616c6c656e676544726976657360501b925050610c7e565b600581600a811115610f9757610f97615c1c565b03610fbd5774436c61696d65724d6973736564446561646c696e6560581b925050610c7e565b600181600a811115610fd157610fd1615c1c565b03610ff8577550726f76696465724d6973736564446561646c696e6560501b925050610c7e565b600481600a81111561100c5761100c615c1c565b03611029576b57616974696e67436c61696d60a01b925050610c7e565b600681600a81111561103d5761103d615c1c565b0361106b577f57616974696e67436f6e6669726d6174696f6e446561646c696e650000000000925050610c7e565b600781600a81111561107f5761107f615c1c565b036110a6577515d85a5d1a5b99d0da185b1b195b99d954995cdd5b1d60521b925050610c7e565b600a81600a8111156110ba576110ba615c1c565b036110da576e10dbdb9cd95b9cdd5cd4995cdd5b1d608a1b925050610c7e565b600881600a8111156110ee576110ee615c1c565b0361110c576c21b430b63632b733b2b92bb7b760991b925050610c7e565b600981600a81111561112057611120615c1c565b0361113b576921b630b4b6b2b92bb7b760b11b925050610c7e565b60405162461bcd60e51b8152602060048201526012602482015271556e7265636f676e697a656420737461746560701b604482015260640161034c565b60408051608081018252600080825260208201819052918101829052606081810192909252819081908190819060008880600054116111c95760405162461bcd60e51b815260040161034c90615b67565b60008a81526006602090815260408083206001600160a01b038d168452600f81018352818420825160808082018552915460ff808216151583526101008204811615158388015262010000820416151582860152630100000090046001600160401b031660608201528351600480825260a082019095529098509194939192918301908036833701905050905081600301548160008151811061126e5761126e615bbf565b6020026020010181815250506112838c614c5d565b82600601546112929190615c04565b816001815181106112a5576112a5615bbf565b6020908102919091010152600482015481516001600160401b0390911690829060029081106112d6576112d6615bbf565b6020026020010181815250508160040160089054906101000a900460ff1660ff168160038151811061130a5761130a615bbf565b60209081029190910101526040805160028082526060820190925260009181602001602082028036833701905050600e840154909150600160401b90046001600160401b0316156113c957600e830154600c840180549091600160401b90046001600160401b031690811061138157611381615bbf565b600091825260208220015482516001600160a01b039091169183916113a8576113a8615bbf565b60200260200101906001600160a01b031690816001600160a01b0316815250505b600e830154600c8401805490916001600160401b03169081106113ee576113ee615bbf565b9060005260206000200160009054906101000a90046001600160a01b03168160018151811061141f5761141f615bbf565b6001600160a01b039290921660209283029190910182015260408051600480825260a08201909252600092909190820160808036833701905050905083600801548160008151811061147357611473615bbf565b60200260200101818152505083600901548160018151811061149757611497615bbf565b60200260200101818152505083600a0154816002815181106114bb576114bb615bbf565b6020026020010181815250506114d08e610ea8565b816003815181106114e3576114e3615bbf565b60209081029190910101526000601085015460ff16600a81111561150957611509615c1c565b0361181057604080516001808252818301909252600091816020015b61152d615118565b815260200190600190039081611525579050509050846014018560120186600201548154811061155f5761155f615bbf565b90600052602060002001548154811061157a5761157a615bbf565b60009182526020918290206040805161012081018252600590930290910180546001600160401b038116845260ff600160401b9091041693830193909352600183018054929392918401916115ce90615d83565b80601f01602080910402602001604051908101604052809291908181526020018280546115fa90615d83565b80156116475780601f1061161c57610100808354040283529160200191611647565b820191906000526020600020905b81548152906001019060200180831161162a57829003601f168201915b5050505050815260200160028201805461166090615d83565b80601f016020809104026020016040519081016040528092919081815260200182805461168c90615d83565b80156116d95780601f106116ae576101008083540402835291602001916116d9565b820191906000526020600020905b8154815290600101906020018083116116bc57829003601f168201915b5050509183525050600382015460208201526004909101546001600160a01b038116604083015260ff600160a01b8204811615156060840152600160a81b8204811615156080840152600160b01b90910416151560a0909101528151829060009061174657611746615bbf565b602002602001018190525083838387600b01848c8a60150160009054906101000a900460ff1683805461177890615d83565b80601f01602080910402602001604051908101604052809291908181526020018280546117a490615d83565b80156117f15780601f106117c6576101008083540402835291602001916117f1565b820191906000526020600020905b8154815290600101906020018083116117d457829003601f168201915b505050505093509c509c509c509c509c509c509c505050505050611bb3565b6003601085015460ff16600a81111561182b5761182b615c1c565b0361188157604080516001808252818301909252600091816020015b61184f615118565b815260200190600190039081611847579050509050846014018560110186600101548154811061155f5761155f615bbf565b6001601085015460ff16600a81111561189c5761189c615c1c565b036118fc5760408051600080825260208201909252816118d2565b6118bf615118565b8152602001906001900390816118b75790505b50905083838387600b01848c8a60150160009054906101000a900460ff1683805461177890615d83565b82828286600b01876014018b8960150160009054906101000a900460ff1683805461192690615d83565b80601f016020809104026020016040519081016040528092919081815260200182805461195290615d83565b801561199f5780601f106119745761010080835404028352916020019161199f565b820191906000526020600020905b81548152906001019060200180831161198257829003601f168201915b5050505050935082805480602002602001604051908101604052809291908181526020016000905b82821015611b9a57600084815260209081902060408051610120810182526005860290920180546001600160401b0381168452600160401b900460ff169383019390935260018301805492939291840191611a2190615d83565b80601f0160208091040260200160405190810160405280929190818152602001828054611a4d90615d83565b8015611a9a5780601f10611a6f57610100808354040283529160200191611a9a565b820191906000526020600020905b815481529060010190602001808311611a7d57829003601f168201915b50505050508152602001600282018054611ab390615d83565b80601f0160208091040260200160405190810160405280929190818152602001828054611adf90615d83565b8015611b2c5780601f10611b0157610100808354040283529160200191611b2c565b820191906000526020600020905b815481529060010190602001808311611b0f57829003601f168201915b505050918352505060038201546020808301919091526004909201546001600160a01b038116604083015260ff600160a01b8204811615156060840152600160a81b8204811615156080840152600160b01b90910416151560a09091015290825260019290920191016119c7565b5050505092509b509b509b509b509b509b509b50505050505b5092959891949750929550565b60008060006060848060005411611be95760405162461bcd60e51b815260040161034c90615b67565b6000868152600660205260409020600a601082015460ff16600a811115611c1257611c12615c1c565b03611cba57600160008083600b01808054611c2c90615d83565b80601f0160208091040260200160405190810160405280929190818152602001828054611c5890615d83565b8015611ca55780601f10611c7a57610100808354040283529160200191611ca5565b820191906000526020600020905b815481529060010190602001808311611c8857829003601f168201915b50505050509050955095509550955050611fde565b6000601082015460ff16600a811115611cd557611cd5615c1c565b1480611cf957506002601082015460ff16600a811115611cf757611cf7615c1c565b145b80611d1c57506004601082015460ff16600a811115611d1a57611d1a615c1c565b145b80611d3f57506006601082015460ff16600a811115611d3d57611d3d615c1c565b145b80611d6257506007601082015460ff16600a811115611d6057611d60615c1c565b145b80611d8557506003601082015460ff16600a811115611d8357611d83615c1c565b145b15611dae5760006001600060405180602001604052806000815250955095509550955050611fde565b6001601082015460ff16600a811115611dc957611dc9615c1c565b03611ee357600087815260066020526040812060128101546002909101541015611e49578160140182601201836002015481548110611e0a57611e0a615bbf565b906000526020600020015481548110611e2557611e25615bbf565b60009182526020909120600460059092020101546001600160a01b03169050611ec0565b600088815260066020526040902060118101546001909101541015611ec0578160140182601101836001015481548110611e8557611e85615bbf565b906000526020600020015481548110611ea057611ea0615bbf565b60009182526020909120600460059092020101546001600160a01b031690505b600080826040518060200160405280600081525096509650965096505050611fde565b6005601082015460ff16600a811115611efe57611efe615c1c565b1480611f2257506008601082015460ff16600a811115611f2057611f20615c1c565b145b15611f8657600e810154600c820180546000928392916001600160401b03909116908110611f5257611f52615bbf565b60009182526020808320909101546040805192830190529181529298509096506001600160a01b031694509250611fde9050565b6009601082015460ff16600a811115611fa157611fa1615c1c565b0361113b5760008082600c0183600e0160089054906101000a90046001600160401b03166001600160401b031681548110611f5257611f52615bbf565b509193509193565b600080600084806000541161200d5760405162461bcd60e51b815260040161034c90615b67565b5050506000928352506006602090815260408084206001600160a01b039093168452600f909201905290205460ff80821692610100830482169262010000900490911690565b8080600054116120755760405162461bcd60e51b815260040161034c90615b67565b60008181526001602052604090205460ff166120a35760405162461bcd60e51b815260040161034c90615b97565b6000828152600660209081526040808320338452600f81019092529091205483919060ff1661210d5760405162461bcd60e51b815260206004820152601660248201527553656e646572206d757374206265206120706172747960501b604482015260640161034c565b6000848152600660209081526040808320338452600f810190925290912054859190610100900460ff161561217f5760405162461bcd60e51b815260206004820152601860248201527714d95b99195c881a185cc8185b1c9958591e481d9bdd195960421b604482015260640161034c565b60008681526002602052604081208054889290919061219d83615beb565b9091555050600087815260066020819052604090912090601082015460ff16600a8111156121cd576121cd615c1c565b146121ea5760405162461bcd60e51b815260040161034c90615ec4565b600554600e820154600c830180546001600160a01b03909316926320b73870923392916001600160401b0390911690811061222757612227615bbf565b6000918252602090912001546005850154600380546009880154600a8901549289015460405160e089901b6001600160e01b03191681526001600160a01b0397881660048201529587166024870152604486019490945294166064840152608483019390935260a482019290925260c481019190915260e4016020604051808303816000875af11580156122bf573d6000803e3d6000fd5b505050506040513d601f19601f820116820180604052508101906122e39190615d39565b60078083019190915560108201805460ff19166001830217905550336000908152600f820160205260409020805461ff0019166101001790819055600e82018054600160401b6001600160401b03630100000090940484160267ffffffffffffffff60401b1990911617808255600160801b900490911690601061236683615f0f565b91906101000a8154816001600160401b0302191690836001600160401b03160217905550504281600601819055507fa895da4b794aeba8d8082db237265459db7b7ffdb5aa7c2332a7c5eafbfae735886040516123c591815260200190565b60405180910390a15050505050505050565b600060328510156124355760405162461bcd60e51b815260206004820152602260248201527f726f756e64206475726174696f6e206d7573742062652035302b207365636f6e604482015261647360f01b606482015260840161034c565b600080548152600660205260408120905b8551816001600160401b0316101561262f5781600f01600087836001600160401b03168151811061247957612479615bbf565b6020908102919091018101516001600160a01b031682528101919091526040016000205460ff16156124ed5760405162461bcd60e51b815260206004820152601e60248201527f506172747920616464726573736573206d75737420626520756e697175650000604482015260640161034c565b600182600f01600088846001600160401b03168151811061251057612510615bbf565b60200260200101516001600160a01b03166001600160a01b0316815260200190815260200160002060000160006101000a81548160ff0219169083151502179055508082600f01600088846001600160401b03168151811061257457612574615bbf565b60200260200101516001600160a01b03166001600160a01b0316815260200190815260200160002060000160036101000a8154816001600160401b0302191690836001600160401b0316021790555081600c0186826001600160401b0316815181106125e2576125e2615bbf565b60209081029190910181015182546001810184556000938452919092200180546001600160a01b0319166001600160a01b039092169190911790558061262781615f0f565b915050612446565b508351600090806001600160401b0381111561264d5761264d6152e1565b604051908082528060200260200182016040528015612676578160200160208202803683370190505b50805161268d916013860191602090910190615166565b5060158301805460ff191686151517905560005b81811015612b825760008782815181106126bd576126bd615bbf565b602002602001015190508060e001516128ee576003816020015160ff1610156127385760405162461bcd60e51b815260206004820152602760248201527f64697265637456616c75652068617320746f206265206174206c65617374206f6044820152661b99481ddbdc9960ca1b606482015260840161034c565b8060c001516128cc576020810151612751906002615d10565b81604001515111156127755760405162461bcd60e51b815260040161034c90615f35565b6040810151602082015161278a906002615d10565b826040015151101561281c576040820151805160208401516127ad906002615d10565b6127b79190615f81565b6001600160401b038111156127ce576127ce6152e1565b6040519080825280601f01601f1916602001820160405280156127f8576020820181803683370190505b5060405160200161280a929190615f98565b60405160208183030381529060405290505b600061282782614fd7565b6040516310561d5760e31b815290915073__$ab849054669f1a61b5fb2a141c20da3cf4$__906382b0eab890612861908490600401615d26565b602060405180830381865af415801561287e573d6000803e3d6000fd5b505050506040513d601f19601f820116820180604052508101906128a29190615d39565b8760130185815481106128b7576128b7615bbf565b90600052602060002001819055505050612a03565b6012850180546001818101835560009283526020909220018390559350612a03565b8060c001516129e557806080015185601301838154811061291157612911615bbf565b6000918252602091829020019190915560048054608084015192840151604051632b6baa3760e21b81526001600160a01b039092169363adaea8dc93612966939192910191825260ff16602082015260400190565b602060405180830381865afa158015612983573d6000803e3d6000fd5b505050506040513d601f19601f820116820180604052508101906129a79190615fc7565b1580156129c0575060a08101516001600160a01b031615155b156129e05760118501805460018101825560009182526020909120018290555b612a03565b60128501805460018181018355600092835260209092200183905593505b604080516101208101825282516001600160401b03908116825260208085015160ff90811682850190815286860151958501958652606080880151908601526080808801519086015260a0808801516001600160a01b03169086015260c08088015115159086015260e0808801511515908601526101008088015115159086015260148b01805460018181018355600092835294909120865160059092020180549251909316600160401b0268ffffffffffffffffff1990921694169390931792909217825592519192909190820190612add9082615e05565b5060608201516002820190612af29082615e05565b506080820151600382015560a08201516004909101805460c084015160e0850151610100909501511515600160b01b0260ff60b01b19951515600160a81b029590951661ffff60a81b19911515600160a01b026001600160a81b03199093166001600160a01b03909516949094179190911716919091179190911790555080612b7a81615beb565b9150506126a1565b5060038960ff161015612be85760405162461bcd60e51b815260206004820152602860248201527f6f75747075742064726976652068617320746f206265206174206c65617374206044820152671bdb99481ddbdc9960c21b606482015260840161034c565b82546001600160a01b03191633178355600e8301805467ffffffffffffffff60801b1916600160801b179055600383018c9055600883018b9055600983018b905560048301805460ff8b16600160401b0268ffffffffffffffffff199091166001600160401b038d1617179055600583018890554260068401558115612c84576010830180546000919060ff19166001835b0217905550612cb4565b601183015415612ca4576010830180546002919060ff1916600183612c7a565b60108301805460ff191660041790555b7f74f4614e097fc158c85ea12787f9e678e96166b4f523416bdb792747c47f1bac600054604051612ce791815260200190565b60405180910390a16000805481526001602081905260408220805460ff1916909117905580549080612d1883615beb565b9190505593505050505b98975050505050505050565b808060005411612d505760405162461bcd60e51b815260040161034c90615b67565b60008181526001602052604090205460ff16612d7e5760405162461bcd60e51b815260040161034c90615b97565b6000828152600660209081526040808320338452600f81019092529091205483919060ff16612de85760405162461bcd60e51b815260206004820152601660248201527553656e646572206d757374206265206120706172747960501b604482015260640161034c565b6000848152600660209081526040808320338452600f810190925290912054859190610100900460ff1615612e5a5760405162461bcd60e51b815260206004820152601860248201527714d95b99195c881a185cc8185b1c9958591e481d9bdd195960421b604482015260640161034c565b600086815260026020526040812080548892909190612e7883615beb565b9091555050600087815260066020819052604090912090601082015460ff16600a811115612ea857612ea8615c1c565b14612ec55760405162461bcd60e51b815260040161034c90615ec4565b600d810180546001810182556000918252602080832090910180546001600160a01b031916339081179091558252600f8301905260409020805461ff001916610100179055600e810180546001600160401b03600160801b90910416906010612f2d83615f0f565b82546001600160401b039182166101009390930a928302919092021990911617905550604080518981523360208201527f6f220d98c15dbd07fdc24781b682ea34f92411fc61b83c761dd927afbe02d3fd910160405180910390a1600c810154600e820154600160801b90046001600160401b031603612ff65760108101805460ff1916600a1790557f395534a9488250c4ea32136ac7cd156150898b4530ec3a5985e3ce6a50d2b36f88612fe181610ea8565b604080519283526020830191909152016123c5565b5050505050505050565b8080600054116130225760405162461bcd60e51b815260040161034c90615b67565b60008181526001602052604090205460ff166130505760405162461bcd60e51b815260040161034c90615b97565b60008281526002602052604081208054849290919061306e83615beb565b90915550506000838152600660205260409020601581015460ff16156130d65760405162461bcd60e51b815260206004820181905260248201527f437478206d61726b6564206173206e6f206368616c6c656e6765206472697665604482015260640161034c565b6002601082015460ff16600a8111156130f1576130f1615c1c565b1461314d5760405162461bcd60e51b815260206004820152602660248201527f53746174652073686f756c642062652057616974696e674368616c6c656e676560448201526544726976657360d01b606482015260840161034c565b336000908152600f8201602052604090205460ff166131be5760405162461bcd60e51b815260206004820152602760248201527f4f6e6c7920636f6e6365726e65642075736572732063616e206368616c6c656e6044820152666744726976657360c81b606482015260840161034c565b60108101805460ff1916600317905542600690910155505050565b6060808380600054116131fe5760405162461bcd60e51b815260040161034c90615b67565b606080600760008881526006602052604090206010015460ff16600a81111561322957613229615c1c565b036132da5760408051600180825281830190925290602080830190803683375050604080516001808252818301909252929450905060208083019080368337505060055484519293506001600160a01b03169184915060009061328e5761328e615bbf565b6001600160a01b039092166020928302919091018201526000888152600690915260408120600701548251909183916132c9576132c9615bbf565b6020026020010181815250506132f4565b505060408051600080825260208201908152818301909252905b90935091505b509250929050565b8180600054116133245760405162461bcd60e51b815260040161034c90615b67565b60008181526001602052604090205460ff166133525760405162461bcd60e51b815260040161034c90615b97565b60008381526006602052604081208491601082015460ff16600a81111561337b5761337b615c1c565b146133c45760405162461bcd60e51b8152602060048201526019602482015278537461746520213d2057616974696e6750726f76696465727360381b604482015260640161034c565b601281015460028201541061341b5760405162461bcd60e51b815260206004820152601b60248201527f4e6f20617661696c61626c652070656e64696e67206472697665730000000000604482015260640161034c565b60008160120182600201548154811061343657613436615bbf565b906000526020600020015490508160140180549050811061348f5760405162461bcd60e51b8152602060048201526013602482015272092dcecc2d8d2c840c8e4d2ecca40d2dcc8caf606b1b604482015260640161034c565b60008260140182815481106134a6576134a6615bbf565b60009182526020918290206040805161012081018252600590930290910180546001600160401b038116845260ff600160401b9091041693830193909352600183018054929392918401916134fa90615d83565b80601f016020809104026020016040519081016040528092919081815260200182805461352690615d83565b80156135735780601f1061354857610100808354040283529160200191613573565b820191906000526020600020905b81548152906001019060200180831161355657829003601f168201915b5050505050815260200160028201805461358c90615d83565b80601f01602080910402602001604051908101604052809291908181526020018280546135b890615d83565b80156136055780601f106135da57610100808354040283529160200191613605565b820191906000526020600020905b8154815290600101906020018083116135e857829003601f168201915b5050509183525050600382015460208201526004909101546001600160a01b038116604083015260ff600160a01b8204811615156060840152600160a81b8204811615156080840152600160b01b90910416151560a0909101526013840180549192506000918490811061367b5761367b615bbf565b9060005260206000200154146136d35760405162461bcd60e51b815260206004820152601e60248201527f447269766520686173682073686f756c646e27742062652066696c6c65640000604482015260640161034c565b8060c001516137245760405162461bcd60e51b815260206004820152601b60248201527f7761697450726f76696465722073686f756c6420626520747275650000000000604482015260640161034c565b60a08101516001600160a01b031633146137755760405162461bcd60e51b815260206004820152601260248201527129b2b73232b910109e90383937bb34b232b960711b604482015260640161034c565b6000878152600660205260408120600281015460128201805492939290919081106137a2576137a2615bbf565b9060005260206000200154905060008260140182815481106137c6576137c6615bbf565b906000526020600020906005020190508060040160159054906101000a900460ff1661383e5760405162461bcd60e51b815260206004820152602160248201527f496e76616c696420647269766520746f20636c61696d20666f72206c6f6767656044820152603960f91b606482015260840161034c565b600381018990556013830180548a91908490811061385e5761385e615bbf565b60009182526020822001919091556002840180549161387c83615beb565b909155505042600684015560128301546002840154036138c4576011830154156138b45760108301805460ff191660021790556138c4565b60108301805460ff191660041790555b7fcf09a543fdbd213491ac20efabb93fbbc4be4dabb386c479dc6356050ed37c3e8a8460140184815481106138fb576138fb615bbf565b9060005260206000209060050201604051613917929190616061565b60405180910390a150505050505050505050565b80806000541161394d5760405162461bcd60e51b815260040161034c90615b67565b60008181526001602052604090205460ff1661397b5760405162461bcd60e51b815260040161034c90615b97565b6000828152600660205260409020546001600160a01b03163381146139e25760405162461bcd60e51b815260206004820152601860248201527f43616e6e6f742062652063616c6c656420627920757365720000000000000000604482015260640161034c565b60008381526006602052604090206001601082015460ff16600a811115613a0b57613a0b615c1c565b1480613a2f57506005601082015460ff16600a811115613a2d57613a2d615c1c565b145b80613a525750600a601082015460ff16600a811115613a5057613a50615c1c565b145b80613a7557506008601082015460ff16600a811115613a7357613a73615c1c565b145b80613a9857506009601082015460ff16600a811115613a9657613a96615c1c565b145b613af65760405162461bcd60e51b815260206004820152602960248201527f43616e6e6f7420646573747275637420696e7374616e63652061742063757272604482015268656e7420737461746560b81b606482015260840161034c565b613b046011820160006151b1565b613b126012820160006151b1565b613b206013820160006151b1565b613b2e6014820160006151d2565b6000848152600160209081526040808320805460ff1916905560029091528120555b50505050565b808060005411613b785760405162461bcd60e51b815260040161034c90615b67565b60008181526001602052604090205460ff16613ba65760405162461bcd60e51b815260040161034c90615b97565b600082815260026020526040812080548492909190613bc483615beb565b909155505060008381526006602052604090206007601082015460ff16600a811115613bf257613bf2615c1c565b14613c575760405162461bcd60e51b815260206004820152602f60248201527f537461746520213d2057616974696e674368616c6c656e6765526573756c742c60448201526e2063616e6e6f742077696e4279564760881b606482015260840161034c565b426006820155600781015460055460405163b6b5c31960e01b8152600481018390526001600160a01b039091169063b6b5c31990602401602060405180830381865afa158015613cab573d6000803e3d6000fd5b505050506040513d601f19601f82011682018060405250810190613ccf9190615fc7565b15613ed957600e820154600c83018054600192600f86019260009290916001600160401b0316908110613d0457613d04615bbf565b60009182526020808320909101546001600160a01b0316835282019290925260400181208054921515620100000262ff000019909316929092179091555b600d830154811015613db757600083600f01600085600d018481548110613d6b57613d6b615bbf565b60009182526020808320909101546001600160a01b03168352820192909252604001902080549115156101000261ff001990921691909117905580613daf81615beb565b915050613d42565b50600d820154600e83018054601090613de1908490600160801b90046001600160401b0316616136565b92506101000a8154816001600160401b0302191690836001600160401b0316021790555081600d016000613e1591906151b1565b600c820154600e830154600160801b90046001600160401b031603613e95576010820180546008919060ff19166001835b02179055507f395534a9488250c4ea32136ac7cd156150898b4530ec3a5985e3ce6a50d2b36f85613e7687610ea8565b6040805192835260208301919091520160405180910390a15050505050565b50601081018054600460ff19909116179055600e018054600160401b81046001600160401b03166fffffffffffffffffffffffffffffffff19909116179055505050565b600554604051633664f8bf60e11b8152600481018390526001600160a01b0390911690636cc9f17e90602401602060405180830381865afa158015613f22573d6000803e3d6000fd5b505050506040513d601f19601f82011682018060405250810190613f469190615fc7565b1561402457600182600f01600084600c0185600e0160089054906101000a90046001600160401b03166001600160401b031681548110613f8857613f88615bbf565b60009182526020808320909101546001600160a01b0316835282019290925260400190208054911515620100000262ff000019909216919091179055600c820154600e8301546001600160401b03600160801b9091041603613ffa576010820180546009919060ff1916600183613e46565b5060108101805460ff19166006179055600e01805467ffffffffffffffff60401b19169055505050565b60405162461bcd60e51b81526020600482015260126024820152711591c81cdd185d19481b9bdd08199a5b985b60721b604482015260640161034c565b50505b505050565b80806000541161408b5760405162461bcd60e51b815260040161034c90615b67565b60008181526001602052604090205460ff166140b95760405162461bcd60e51b815260040161034c90615b97565b60008281526006602052604090206003601082015460ff16600a8111156140e2576140e2615c1c565b1461412f5760405162461bcd60e51b815260206004820152601760248201527f537461746520213d2057616974696e6752657665616c73000000000000000000604482015260640161034c565b60008160110182600101548154811061414a5761414a615bbf565b90600052602060002001549050816014018054905081106141a25760405162461bcd60e51b8152602060048201526012602482015271092dcecc2d8d2c840c8e4d2ecca92dcc8caf60731b604482015260640161034c565b60008260140182815481106141b9576141b9615bbf565b60009182526020918290206040805161012081018252600590930290910180546001600160401b038116845260ff600160401b90910416938301939093526001830180549293929184019161420d90615d83565b80601f016020809104026020016040519081016040528092919081815260200182805461423990615d83565b80156142865780601f1061425b57610100808354040283529160200191614286565b820191906000526020600020905b81548152906001019060200180831161426957829003601f168201915b5050505050815260200160028201805461429f90615d83565b80601f01602080910402602001604051908101604052809291908181526020018280546142cb90615d83565b80156143185780601f106142ed57610100808354040283529160200191614318565b820191906000526020600020905b8154815290600101906020018083116142fb57829003601f168201915b5050509183525050600382015460208201526004909101546001600160a01b038116604083015260ff600160a01b8204811615156060840152600160a81b8204811615156080840152600160b01b90910416151560a09091015260e08101519091506143c65760405162461bcd60e51b815260206004820152601a60248201527f6e656564734c6f676765722073686f756c642062652074727565000000000000604482015260640161034c565b6004805460808301516020840151604051632b6baa3760e21b81529384019190915260ff1660248301526001600160a01b03169063adaea8dc90604401602060405180830381865afa158015614420573d6000803e3d6000fd5b505050506040513d601f19601f820116820180604052508101906144449190615fc7565b6144905760405162461bcd60e51b815260206004820152601a60248201527f4c6f67676572206472697665206e6f7420617661696c61626c65000000000000604482015260640161034c565b6001830180549060006144a283615beb565b90915550504260068401556011830154600184015403614061575050601001805460ff191660041790555050565b8180600054116144f25760405162461bcd60e51b815260040161034c90615b67565b60008181526001602052604090205460ff166145205760405162461bcd60e51b815260040161034c90615b97565b60008381526006602052604081208491601082015460ff16600a81111561454957614549615c1c565b146145925760405162461bcd60e51b8152602060048201526019602482015278537461746520213d2057616974696e6750726f76696465727360381b604482015260640161034c565b60128101546002820154106145e95760405162461bcd60e51b815260206004820152601b60248201527f4e6f20617661696c61626c652070656e64696e67206472697665730000000000604482015260640161034c565b60008160120182600201548154811061460457614604615bbf565b906000526020600020015490508160140180549050811061465d5760405162461bcd60e51b8152602060048201526013602482015272092dcecc2d8d2c840c8e4d2ecca40d2dcc8caf606b1b604482015260640161034c565b600082601401828154811061467457614674615bbf565b60009182526020918290206040805161012081018252600590930290910180546001600160401b038116845260ff600160401b9091041693830193909352600183018054929392918401916146c890615d83565b80601f01602080910402602001604051908101604052809291908181526020018280546146f490615d83565b80156147415780601f1061471657610100808354040283529160200191614741565b820191906000526020600020905b81548152906001019060200180831161472457829003601f168201915b5050505050815260200160028201805461475a90615d83565b80601f016020809104026020016040519081016040528092919081815260200182805461478690615d83565b80156147d35780601f106147a8576101008083540402835291602001916147d3565b820191906000526020600020905b8154815290600101906020018083116147b657829003601f168201915b5050509183525050600382015460208201526004909101546001600160a01b038116604083015260ff600160a01b8204811615156060840152600160a81b8204811615156080840152600160b01b90910416151560a0909101526013840180549192506000918490811061484957614849615bbf565b9060005260206000200154146148a15760405162461bcd60e51b815260206004820152601e60248201527f447269766520686173682073686f756c646e27742062652066696c6c65640000604482015260640161034c565b8060c001516148f25760405162461bcd60e51b815260206004820152601b60248201527f7761697450726f76696465722073686f756c6420626520747275650000000000604482015260640161034c565b60a08101516001600160a01b031633146149435760405162461bcd60e51b815260206004820152601260248201527129b2b73232b910109e90383937bb34b232b960711b604482015260640161034c565b60008781526006602052604081206002810154601282018054929392909190811061497057614970615bbf565b90600052602060002001549050600082601401828154811061499457614994615bbf565b906000526020600020906005020190508060040160159054906101000a900460ff1615614a135760405162461bcd60e51b815260206004820152602760248201527f496e76616c696420647269766520746f20636c61696d20666f72206469726563604482015266742076616c756560c81b606482015260840161034c565b8054614a2a90600160401b900460ff166002615d10565b89511115614a4a5760405162461bcd60e51b815260040161034c90615f35565b80548990614a6390600160401b900460ff166002615d10565b8a511015614af657895182548b9190614a8790600160401b900460ff166002615d10565b614a919190615f81565b6001600160401b03811115614aa857614aa86152e1565b6040519080825280601f01601f191660200182016040528015614ad2576020820181803683370190505b50604051602001614ae4929190615f98565b60405160208183030381529060405290505b6000614b0182614fd7565b9050600073__$ab849054669f1a61b5fb2a141c20da3cf4$__6382b0eab8836040518263ffffffff1660e01b8152600401614b3c9190615d26565b602060405180830381865af4158015614b59573d6000803e3d6000fd5b505050506040513d601f19601f82011682018060405250810190614b7d9190615d39565b905060018401614b8d8d82615e05565b5080866013018681548110614ba457614ba4615bbf565b600091825260208220019190915560028701805491614bc283615beb565b90915550504260068701556012860154600287015403614c0a57601186015415614bfa5760108601805460ff19166002179055614c0a565b60108601805460ff191660041790555b7fcf09a543fdbd213491ac20efabb93fbbc4be4dabb386c479dc6356050ed37c3e8d876014018781548110614c4157614c41615bbf565b9060005260206000209060050201604051610c03929190616061565b600060016101f460288360008681526006602052604090206010015460ff16600a811115614c8d57614c8d615c1c565b03614cab575050506000918252506006602052604090206005015490565b600360008681526006602052604090206010015460ff16600a811115614cd357614cd3615c1c565b03614d025760008581526006602052604090206005015461096090614cf89082615c04565b9695505050505050565b600260008681526006602052604090206010015460ff16600a811115614d2a57614d2a615c1c565b03614d665760008581526006602052604090206005810154601190910154614d5390600261615e565b614d5d919061615e565b95945050505050565b600460008681526006602052604090206010015460ff16600a811115614d8e57614d8e615c1c565b03614ddc576000858152600660205260409020600581015460039091015464e8d4a5100090614dbe90859061615e565b614dc8919061617d565b614dd29083615c04565b614d5d9190615c04565b600660008681526006602052604090206010015460ff16600a811115614e0457614e04615c1c565b03614e34576000858152600660205260409020600581015460039091015464e8d4a5100090614dbe90859061615e565b600760008681526006602052604090206010015460ff16600a811115614e5c57614e5c615c1c565b03614f06576000858152600660205260409081902060058082015490546003909201549251631b8798d560e11b8152600481018290526024810185905260448101879052606481019390935260848301859052916001600160a01b039091169063370f31aa9060a401602060405180830381865afa158015614ee2573d6000803e3d6000fd5b505050506040513d601f19601f82011682018060405250810190614dd29190615d39565b600960008681526006602052604090206010015460ff16600a811115614f2e57614f2e615c1c565b1480614f5f5750600860008681526006602052604090206010015460ff16600a811115614f5d57614f5d615c1c565b145b80614f8f5750600560008681526006602052604090206010015460ff16600a811115614f8d57614f8d615c1c565b145b80614fbf5750600a60008681526006602052604090206010015460ff16600a811115614fbd57614fbd615c1c565b145b15614fcf57506000949350505050565b505050919050565b6060600060088351614fe9919061617d565b90506000816001600160401b03811115615005576150056152e1565b60405190808252806020026020018201604052801561502e578160200160208202803683370190505b50905060005b82811015615110576000805b60088110156150b3576000878261505886600861615e565b6150629190615c04565b8151811061507257615072615bbf565b01602001516001600160f81b031916905061508e82600861615e565b6001600160c01b0319909116901c9190911790806150ab81615beb565b915050615040565b506040516001600160c01b031982166020820152602801604051602081830303815290604052805190602001208383815181106150f2576150f2615bbf565b6020908102919091010152508061510881615beb565b915050615034565b509392505050565b60408051610120810182526000808252602082018190526060928201839052828201929092526080810182905260a0810182905260c0810182905260e0810182905261010081019190915290565b8280548282559060005260206000209081019282156151a1579160200282015b828111156151a1578251825591602001919060010190615186565b506151ad9291506151f3565b5090565b50805460008255906000526020600020908101906151cf91906151f3565b50565b50805460008255600502906000526020600020908101906151cf9190615208565b5b808211156151ad57600081556001016151f4565b808211156151ad57805468ffffffffffffffffff19168155600061522f600183018261525f565b61523d60028301600061525f565b50600060038201556004810180546001600160b81b0319169055600501615208565b50805461526b90615d83565b6000825580601f1061527b575050565b601f0160209004906000526020600020908101906151cf91906151f3565b80356001600160a01b03811681146152b057600080fd5b919050565b600080604083850312156152c857600080fd5b823591506152d860208401615299565b90509250929050565b634e487b7160e01b600052604160045260246000fd5b60405161012081016001600160401b038111828210171561531a5761531a6152e1565b60405290565b604051601f8201601f191681016001600160401b0381118282101715615348576153486152e1565b604052919050565b60006001600160401b03821115615369576153696152e1565b5060051b60200190565b600082601f83011261538457600080fd5b8135602061539961539483615350565b615320565b82815260059290921b840181019181810190868411156153b857600080fd5b8286015b848110156153d357803583529183019183016153bc565b509695505050505050565b600082601f8301126153ef57600080fd5b81356001600160401b03811115615408576154086152e1565b61541b601f8201601f1916602001615320565b81815284602083860101111561543057600080fd5b816020850160208301376000918101602001919091529392505050565b600080600080600060a0868803121561546557600080fd5b85359450602080870135945060408701356001600160401b038082111561548b57600080fd5b818901915089601f83011261549f57600080fd5b81356154ad61539482615350565b81815260059190911b8301840190848101908c8311156154cc57600080fd5b8585015b83811015615504578035858111156154e85760008081fd5b6154f68f89838a0101615373565b8452509186019186016154d0565b5097505050606089013592508083111561551d57600080fd5b6155298a848b016153de565b9450608089013592508083111561553f57600080fd5b505061554d88828901615373565b9150509295509295909350565b60006020828403121561556c57600080fd5b5035919050565b600081518084526020808501945080840160005b838110156155a357815187529582019590820190600101615587565b509495945050505050565b600081518084526020808501945080840160005b838110156155a35781516001600160a01b0316875295820195908201906001016155c2565b60005b838110156156025781810151838201526020016155ea565b83811115613b505750506000910152565b6000815180845261562b8160208601602086016155e7565b601f01601f19169290920160200192915050565b600081518084526020808501808196508360051b8101915082860160005b8581101561571c578284038952815180516001600160401b031685526101208187015160ff8116878901525060408083015182828901526156a083890182615613565b92505050606080830151878303828901526156bb8382615613565b92505050608080830151818801525060a0808301516156e4828901826001600160a01b03169052565b505060c08281015115159087015260e0808301511515908701526101009182015115159190950152978401979084019060010161565d565b5091979650505050505050565b600061014080835261573d8184018b615573565b9050602083820381850152615752828b6155ae565b84810360408601528951808252828b0193509082019060005b818110156157875784518352938301939183019160010161576b565b5050848103606086015261579b818a615613565b9250505082810360808401526157b1818761563f565b8551151560a08501526020860151151560c08501526040860151151560e085015260608601516001600160401b031661010085015291506157ef9050565b821515610120830152612d22565b841515815283151560208201526001600160a01b0383166040820152608060608201819052600090614cf890830184615613565b80356001600160401b03811681146152b057600080fd5b803560ff811681146152b057600080fd5b80151581146151cf57600080fd5b80356152b081615859565b600082601f83011261588357600080fd5b8135602061589361539483615350565b82815260059290921b840181019181810190868411156158b257600080fd5b8286015b848110156153d35780356001600160401b03808211156158d65760008081fd5b90880190610120828b03601f19018113156158f15760008081fd5b6158f96152f7565b615904888501615831565b81526040615913818601615848565b898301526060808601358581111561592b5760008081fd5b6159398f8c838a01016153de565b83850152506080915081860135858111156159545760008081fd5b6159628f8c838a01016153de565b82850152505060a0935083850135818301525060c0615982818601615299565b8483015260e09350615995848601615867565b908201526101006159a7858201615867565b848301526159b6838601615867565b9082015286525050509183019183016158b6565b600080600080600080600080610100898b0312156159e757600080fd5b883597506020808a013597506159ff60408b01615831565b9650615a0d60608b01615848565b955060808a0135945060a08a01356001600160401b0380821115615a3057600080fd5b818c0191508c601f830112615a4457600080fd5b8135615a5261539482615350565b81815260059190911b8301840190848101908f831115615a7157600080fd5b938501935b82851015615a9657615a8785615299565b82529385019390850190615a76565b9750505060c08c0135925080831115615aae57600080fd5b5050615abc8b828c01615872565b925050615acb60e08a01615867565b90509295985092959890939650565b604081526000615aed60408301856155ae565b8281036020840152614d5d8185615573565b60008060408385031215615b1257600080fd5b50508035926020909101359150565b60008060408385031215615b3457600080fd5b8235915060208301356001600160401b03811115615b5157600080fd5b615b5d858286016153de565b9150509250929050565b602080825260169082015275125b99195e081b9bdd081a5b9cdd185b9d1a585d195960521b604082015260600190565b6020808252600e908201526d496e64657820696e61637469766560901b604082015260600190565b634e487b7160e01b600052603260045260246000fd5b634e487b7160e01b600052601160045260246000fd5b600060018201615bfd57615bfd615bd5565b5060010190565b60008219821115615c1757615c17615bd5565b500190565b634e487b7160e01b600052602160045260246000fd5b600181815b808511156132fa578160001904821115615c5357615c53615bd5565b80851615615c6057918102915b93841c9390800290615c37565b600082615c7c57506001615d0a565b81615c8957506000615d0a565b8160018114615c9f5760028114615ca957615cc5565b6001915050615d0a565b60ff841115615cba57615cba615bd5565b50506001821b615d0a565b5060208310610133831016604e8410600b8410161715615ce8575081810a615d0a565b615cf28383615c32565b8060001904821115615d0657615d06615bd5565b0290505b92915050565b6000615d1f60ff841683615c6d565b9392505050565b602081526000615d1f6020830184615573565b600060208284031215615d4b57600080fd5b5051919050565b6001600160401b038516815260ff84166020820152826040820152608060608201526000614cf86080830184615573565b600181811c90821680615d9757607f821691505b602082108103610c7e57634e487b7160e01b600052602260045260246000fd5b601f82111561406457600081815260208120601f850160051c81016020861015615dde5750805b601f850160051c820191505b81811015615dfd57828155600101615dea565b505050505050565b81516001600160401b03811115615e1e57615e1e6152e1565b615e3281615e2c8454615d83565b84615db7565b602080601f831160018114615e675760008415615e4f5750858301515b600019600386901b1c1916600185901b178555615dfd565b600085815260208120601f198616915b82811015615e9657888601518255948401946001909101908401615e77565b5085821015615eb45787850151600019600388901b60f8161c191681555b5050505050600190811b01905550565b6020808252602b908201527f53746174652073686f756c642062652057616974696e67436f6e6669726d617460408201526a696f6e446561646c696e6560a81b606082015260800190565b60006001600160401b03808316818103615f2b57615f2b615bd5565b6001019392505050565b6020808252602c908201527f496e707574206279746573206c656e677468206578636565647320636c61696d60408201526b6564206c6f67322073697a6560a01b606082015260800190565b600082821015615f9357615f93615bd5565b500390565b60008351615faa8184602088016155e7565b835190830190615fbe8183602088016155e7565b01949350505050565b600060208284031215615fd957600080fd5b8151615d1f81615859565b60008154615ff181615d83565b80855260206001838116801561600e576001811461602857616056565b60ff1985168884015283151560051b880183019550616056565b866000528260002060005b8581101561604e5781548a8201860152908301908401616033565b890184019650505b505050505092915050565b828152604060208201526000825461608d604084016001600160401b0383166001600160401b03169052565b604081901c60ff166060840152506101208060808401526160b5610160840160018601615fe4565b838103603f190160a08501526160ce8160028701615fe4565b600386015460c086015260048601546001600160a01b03811660e0870152909150616104610100860160ff8360a01c1615159052565b61611783860160ff8360a81c1615159052565b61612c610140860160ff8360b01c1615159052565b5095945050505050565b60006001600160401b038381169083168181101561615657616156615bd5565b039392505050565b600081600019048311821515161561617857616178615bd5565b500290565b60008261619a57634e487b7160e01b600052601260045260246000fd5b50049056fea26469706673582212207fe18781055a3fa5d03d96e4cf53c84a62dbbcb280eb77afcf5c0f6bc93c586b64736f6c634300080f0033",
  "linkReferences": {
    "@cartesi/util/contracts/MerkleV3.sol": {
      "MerkleV3": [
        {
          "length": 20,
          "start": 1945
        },
        {
          "length": 20,
          "start": 2306
        },
        {
          "length": 20,
          "start": 2435
        },
        {
          "length": 20,
          "start": 2836
        },
        {
          "length": 20,
          "start": 10540
        },
        {
          "length": 20,
          "start": 19450
        }
      ]
    }
  },
  "deployedLinkReferences": {
    "@cartesi/util/contracts/MerkleV3.sol": {
      "MerkleV3": [
        {
          "length": 20,
          "start": 1702
        },
        {
          "length": 20,
          "start": 2063
        },
        {
          "length": 20,
          "start": 2192
        },
        {
          "length": 20,
          "start": 2593
        },
        {
          "length": 20,
          "start": 10297
        },
        {
          "length": 20,
          "start": 19207
        }
      ]
    }
  }
}